{
    "_format": "hh-sol-artifact-1",
    "contractName": "Course",
    "sourceName": "contracts/Course.sol",
    "abi": [
        {
            "inputs": [],
            "stateMutability": "nonpayable",
            "type": "constructor"
        },
        {
            "inputs": [
                {
                    "internalType": "string",
                    "name": "name",
                    "type": "string"
                }
            ],
            "name": "buyCourse",
            "outputs": [],
            "stateMutability": "payable",
            "type": "function"
        },
        {
            "inputs": [],
            "name": "getMemos",
            "outputs": [
                {
                    "components": [
                        {
                            "internalType": "string",
                            "name": "name",
                            "type": "string"
                        },
                        {
                            "internalType": "uint256",
                            "name": "timestamp",
                            "type": "uint256"
                        },
                        {
                            "internalType": "address",
                            "name": "from",
                            "type": "address"
                        }
                    ],
                    "internalType": "struct Course.Memo[]",
                    "name": "",
                    "type": "tuple[]"
                }
            ],
            "stateMutability": "view",
            "type": "function"
        }
    ],
    "bytecode": "0x608060405234801561001057600080fd5b5033600160006101000a81548173ffffffffffffffffffffffffffffffffffffffff021916908373ffffffffffffffffffffffffffffffffffffffff160217905550610a7b806100616000396000f3fe6080604052600436106100295760003560e01c8063298f32671461002e578063865c51721461004a575b600080fd5b61004860048036038101906100439190610494565b610075565b005b34801561005657600080fd5b5061005f6101e9565b60405161006c91906106c8565b60405180910390f35b600034116100b8576040517f08c379a00000000000000000000000000000000000000000000000000000000081526004016100af90610747565b60405180910390fd5b600160009054906101000a900473ffffffffffffffffffffffffffffffffffffffff1673ffffffffffffffffffffffffffffffffffffffff166108fc349081150290604051600060405180830381858888f19350505050158015610120573d6000803e3d6000fd5b50600060405180606001604052808381526020014281526020013373ffffffffffffffffffffffffffffffffffffffff16815250908060018154018082558091505060019003906000526020600020906003020160009091909190915060008201518160000190816101929190610973565b506020820151816001015560408201518160020160006101000a81548173ffffffffffffffffffffffffffffffffffffffff021916908373ffffffffffffffffffffffffffffffffffffffff160217905550505050565b60606000805480602002602001604051908101604052809291908181526020016000905b82821015610331578382906000526020600020906003020160405180606001604052908160008201805461024090610796565b80601f016020809104026020016040519081016040528092919081815260200182805461026c90610796565b80156102b95780601f1061028e576101008083540402835291602001916102b9565b820191906000526020600020905b81548152906001019060200180831161029c57829003601f168201915b50505050508152602001600182015481526020016002820160009054906101000a900473ffffffffffffffffffffffffffffffffffffffff1673ffffffffffffffffffffffffffffffffffffffff1673ffffffffffffffffffffffffffffffffffffffff16815250508152602001906001019061020d565b50505050905090565b6000604051905090565b600080fd5b600080fd5b600080fd5b600080fd5b6000601f19601f8301169050919050565b7f4e487b7100000000000000000000000000000000000000000000000000000000600052604160045260246000fd5b6103a182610358565b810181811067ffffffffffffffff821117156103c0576103bf610369565b5b80604052505050565b60006103d361033a565b90506103df8282610398565b919050565b600067ffffffffffffffff8211156103ff576103fe610369565b5b61040882610358565b9050602081019050919050565b82818337600083830152505050565b6000610437610432846103e4565b6103c9565b90508281526020810184848401111561045357610452610353565b5b61045e848285610415565b509392505050565b600082601f83011261047b5761047a61034e565b5b813561048b848260208601610424565b91505092915050565b6000602082840312156104aa576104a9610344565b5b600082013567ffffffffffffffff8111156104c8576104c7610349565b5b6104d484828501610466565b91505092915050565b600081519050919050565b600082825260208201905092915050565b6000819050602082019050919050565b600081519050919050565b600082825260208201905092915050565b60005b83811015610543578082015181840152602081019050610528565b60008484015250505050565b600061055a82610509565b6105648185610514565b9350610574818560208601610525565b61057d81610358565b840191505092915050565b6000819050919050565b61059b81610588565b82525050565b600073ffffffffffffffffffffffffffffffffffffffff82169050919050565b60006105cc826105a1565b9050919050565b6105dc816105c1565b82525050565b600060608301600083015184820360008601526105ff828261054f565b91505060208301516106146020860182610592565b50604083015161062760408601826105d3565b508091505092915050565b600061063e83836105e2565b905092915050565b6000602082019050919050565b600061065e826104dd565b61066881856104e8565b93508360208202850161067a856104f9565b8060005b858110156106b657848403895281516106978582610632565b94506106a283610646565b925060208a0199505060018101905061067e565b50829750879550505050505092915050565b600060208201905081810360008301526106e28184610653565b905092915050565b600082825260208201905092915050565b7f506c65617365207061792067726561746572207468616e203020657468657200600082015250565b6000610731601f836106ea565b915061073c826106fb565b602082019050919050565b6000602082019050818103600083015261076081610724565b9050919050565b7f4e487b7100000000000000000000000000000000000000000000000000000000600052602260045260246000fd5b600060028204905060018216806107ae57607f821691505b6020821081036107c1576107c0610767565b5b50919050565b60008190508160005260206000209050919050565b60006020601f8301049050919050565b600082821b905092915050565b6000600883026108297fffffffffffffffffffffffffffffffffffffffffffffffffffffffffffffffff826107ec565b61083386836107ec565b95508019841693508086168417925050509392505050565b6000819050919050565b600061087061086b61086684610588565b61084b565b610588565b9050919050565b6000819050919050565b61088a83610855565b61089e61089682610877565b8484546107f9565b825550505050565b600090565b6108b36108a6565b6108be818484610881565b505050565b5b818110156108e2576108d76000826108ab565b6001810190506108c4565b5050565b601f821115610927576108f8816107c7565b610901846107dc565b81016020851015610910578190505b61092461091c856107dc565b8301826108c3565b50505b505050565b600082821c905092915050565b600061094a6000198460080261092c565b1980831691505092915050565b60006109638383610939565b9150826002028217905092915050565b61097c82610509565b67ffffffffffffffff81111561099557610994610369565b5b61099f8254610796565b6109aa8282856108e6565b600060209050601f8311600181146109dd57600084156109cb578287015190505b6109d58582610957565b865550610a3d565b601f1984166109eb866107c7565b60005b82811015610a13578489015182556001820191506020850194506020810190506109ee565b86831015610a305784890151610a2c601f891682610939565b8355505b6001600288020188555050505b50505050505056fea2646970667358221220623c49e48db6574534ff3fe454003a4ae7740dec935f83e250e66d8a0d30a45464736f6c63430008130033",
    "linkReferences": {},
    "deployedLinkReferences": {}
}